:020000040000FA
:10000000B201CC290408A7000610861086108316BA
:100010000610861086100F30860583122708B21846
:100020002F283A30A100FC308A213330A60043202B
:100030001030A10068308A21432064308921432098
:100040002230A600432028302E200C302E200130F4
:100050002E2006302E20B21427082F283214A60096
:10006000321C3D288610033C031C422842200730E6
:10007000A100D0308A21031408003214FE3C031979
:10008000C7298614321C321006140F308605260844
:10009000F03986040610A60E321843283230892122
:1000A000031408002C08A0002D08A1000130A200B4
:1000B000A30164008420031C7128A20B5928FF307F
:1000C000A30703185928A007031CA107031C080055
:1000D0007D30A2000030A30059286400842003185A
:1000E0006D28F420A8010830A300F520842003180F
:1000F000A80AAB1EA801A20CA30B7528AB1AA21369
:10010000F5200314220808003608840034088417F8
:100110008004841300052B1B3406FF3E0800A40056
:10012000290803140319C729C221031C0800A000D1
:100130002518831724088400200880008313A40A4C
:10014000A9039028A400290803140319C729C22170
:10015000031C0800A0002518831724088400200829
:1001600080002E020319B8288313A40AA903A32828
:100170008001840AA90BB8280314C7290408A60023
:10018000360884008030B3050830A7000310031838
:10019000B30ADA20A60CA70BC7280000AB1A330C51
:1001A000DA20CA210314DA202F08A3002E087D21AB
:1001B0000314C7298413AB1FE928000834042B1F3C
:1001C00034068000841700083404031C34068000C1
:1001D000F52800083404031C34062B1B3406800069
:1001E000841734098005F52833172B081F39003E82
:1001F000A1002A08083E0318A10A331F8A293313D5
:10020000A0000310A10CA00C0310A10C200C8A2943
:10021000A4002518831724088400000883130319F9
:10022000C729C221A40A0929A40029080319C7293A
:10023000251883172408840000088313C221A40A08
:10024000A9031629A3003608840084173409800501
:100250008413A3080319C729F030A50022088038A9
:10026000A400F030A5030319A5000319A303031983
:10027000C7292008A6002108A7001C3089212608CC
:10028000A0002708A1005321030120183408A21F51
:100290003408A20803190301A40F502980062E294F
:1002A000512900003129210820040319A00A8030B7
:1002B000201AA1062019A106A018A106210DA00D43
:1002C000A10DC729031783168C010C1483120C0887
:1002D00003178D0AC729030103178C0083168C01AD
:1002E0000C1555308D00AA308D008C148C18762991
:1002F0000C1183128D0AC729A301A200FF30A207A7
:10030000031CA307031CC7290330A100E4308A2182
:100310007E29A101F63EA000A109031C9529FE300B
:100320000000A00703189029A0076400A10F8F29DF
:10033000000020189B2920189D290800A2000230E7
:10034000AB29A101A301A2000130AB29A101A301A6
:10035000A2000430AB29A80023082102031DB22902
:100360002208200204300318013003190230280546
:10037000031DFF30C7290038031DFF300405031D8E
:10038000FF30C729840031088A00300882008313B7
:1003900003138312640008000130A300F4308A01C3
:1003A0007D218316093085000C3086005830870087
:1003B00007309F0083120317C6010313003086190C
:1003C00001300317C9000313003006190130031769
:1003D000C80003134930FE004E30FF000317C70169
:1003E0000130C400C50103130317C201C201031386
:1003F00064000630031742028A110A12031303181D
:100400000F2A03174208763E840003132E30800023
:100410000317C20A8A110A120313031DF8290710D1
:10042000831607108312071183160711831205160E
:10043000831605128312871483168710831285147E
:1004400083168510FE3083128A01032001308A0151
:10045000032014308A017C214D308A0103204F3063
:100460008A01032044308A01032045308A01032099
:100470004D308A0103202D308A01032044308A0147
:10048000032056308A01032020308A0103202030C7
:100490008A01032045308A01032041308A0103206C
:1004A00033308A01032043308A0103204E308A0111
:1004B00003204F308A0103200730B6002030B400FB
:1004C0005430AA00AB01AE01AF01FE308A01BF205B
:1004D000FE308A01BF2001308A01BF207F308A01AF
:1004E000BF201D308A01BF20C9308A01BF200030E3
:1004F0008A01BF20FD308A01BF200730B6001030CE
:10050000B4005430AA00AB01E830AC000330AD00B9
:100510000530A9005230B000B101A501E0308A01D8
:100520008F208A110A12031CF429FE308A0103204D
:10053000C0308A010320640083166408FB3C8A11E2
:100540000A1283120319D72A55308A010320543026
:100550008A01032031308A01032031308A010320CF
:1005600038308A01032020308A0103206E308A014E
:1005700003206F308A01032074308A010320203069
:100580008A01032052308A01032065308A0103204A
:1005900061308A01032064308A01032079308A01A6
:1005A000032020308A01032064008A01D42A5230BB
:1005B0008A01032065308A01032061308A0103200B
:1005C00064308A01032079308A01032021308A01B6
:1005D000032020308A01032076308A010320323044
:1005E0008A0103202E308A01032030308A01032043
:1005F00062308A01032028308A01032032308A01C8
:10060000032034308A01032029308A01032003307B
:10061000A300E8308A017D218A150A1224258A1157
:100620000A167A20071083160710831264008316B7
:100630006D0883127E028A110A120319232B0317F5
:100640000130C4000313640083166E0883127F0216
:100650008A110A120319302B03170130C400031347
:10066000640003174408013C8A110A120313031D96
:100670003C2B8A110A16032164008A110A12051CF8
:10068000492B64008A110A12871DE12D8A150A126E
:10069000162F03170130C400031305128316051229
:1006A00083128510831685100A3083128A017C21FB
:1006B00064008A110A1205181F2D0730B600103089
:1006C000B4005430AA00AB011930AC00AD018A016E
:1006D00052208A110A12031C582B1D3C8A110A123F
:1006E000031D672B8A0152208A110A12031C582B02
:1006F000DB3C8A110A12031D672B0430A90052301B
:10070000B000B1010130A50014308A018F208A1198
:100710000A12031C582B0730B6001030B4005430B6
:10072000AA00AB011930AC00AD018A0152208A1138
:100730000A12031C582B1D3C8A110A12031D952B0B
:100740008A0152208A110A12031C582B043C8A1178
:100750000A12031D952B0830A9005230B000B101D8
:10076000A501C8308A018F208A110A12031C582B58
:100770000830A9005230B000B101A501C0308A0193
:100780008F208A110A12031C582B0830A9005230FE
:10079000B000B101A501D0308A018F208A110A1260
:1007A000031C582B0830A9005230B000B101A5013C
:1007B000B8308A018F208A110A12031C582B64005A
:1007C0002F30831638028A110A128312031C582B09
:1007D0008A150A1260260730B6008030B400543003
:1007E000AA00AB01AE01AF017B308A01BF204D30C2
:1007F0008A01BF2063308A01BF202D308A01BF20CB
:100800000830A900BE30B000B101A501B8308A019E
:1008100014212F308A01BF200430A900BE30B0005F
:10082000B1010130A50014308A01142120308A0161
:10083000BF2059308A01BF2063308A01BF202D308C
:100840008A01BF200830A900BE30B000B101A50167
:10085000D0308A01142120308A01BF2020308A0143
:10086000BF2052308A01BF2070308A01BF2074300F
:100870008A01BF2031308A01BF202D308A01BF207C
:100880000830A900BE30B000B101A501C0308A0116
:10089000142120308A01BF2020308A01BF2052302D
:1008A0008A01BF2070308A01BF2074308A01BF20C6
:1008B00032308A01BF202D308A01BF200830A900C4
:1008C000BE30B000B101A501C8308A0114217D30CD
:1008D0008A01BF2020308A01BF2003174908BE00CB
:1008E00064004608003C8A110A120313031D7E2C83
:1008F0000030861901300317BE000313640003178C
:100900003E08013C8A110A1203130319D42CFE304D
:100910008A01032001308A0103200A308A017C21E8
:1009200052308A01032070308A01032074308A011A
:10093000032031308A01032020308A01032008304F
:10094000A9000230B000B101A501A0308A01142134
:10095000FE308A010320C0308A01032052308A0110
:10096000032070308A01032074308A010320323062
:100970008A01032020308A0103200830A9000230B8
:10098000B000B101A501A8308A01142120308A01EC
:10099000032052308A01032072308A010320033081
:1009A000A300E8308A017D21FE308A010320013056
:1009B0008A0103200A308A017C214D308A010320FC
:1009C00063308A0103202D308A0103200830A900FA
:1009D0000230B000B101A50176308A0114212F3018
:1009E0008A0103200430A9000230B000B1010130B7
:1009F000A50010308A011421FE308A010320C03086
:100A00008A01032059308A01032063308A010320C0
:100A10002D308A0103200830A9000230B000B10156
:100A2000A501B0308A01142120308A010320523000
:100A30008A01032073308A0103208A01582B05168E
:100A400083160512831285148316851083120330D2
:100A5000A300E8308A017D218A110A124E25640024
:100A600083166F08303C8A110A12831203194C2D29
:100A70000512831605124B3083128A017C21053042
:100A8000B6002030B4006630A20006308A01222170
:100A900005168316051283128A01162B03173F08C9
:100AA000313C031DFF30FF3A9800031379086902B7
:100AB000031DFF30FF3A03179A0018080313840040
:100AC00003171A0803138A01BB2103179A009B001E
:100AD00003137A086A02031DFF30FF3A03179C00D4
:100AE0001A081B0484001C0803138A01BB21031786
:100AF0009C009D0003137B086B02031DFF30FF3A2F
:100B000003179E001E080313840003171C081D040E
:100B100003138A01BB218A110A12031DE02D03175A
:100B20003F08313C031DFF30FF3A9800031376085D
:100B3000A0002F308A01A12103179A00180803137F
:100B4000840003171A0803138A01BB2103179A00B4
:100B50009B0003137608A0007B308A01A6210317AF
:100B60009C001C080313840003171A081B040313BA
:100B70008A01BB218A110A12031DBF2D0800031729
:100B8000C201031364000830031742028A110A12DB
:100B900003130318E02D03174208763E8400031365
:100BA0000008031798004208D83E84001808031371
:100BB00080000317C20A8A110A120313031DC22DF3
:100BC000080003170130C40007300313B6002030BB
:100BD000B4005430AA00AB01AE01AF01FE308A016F
:100BE000BF20FE308A01BF2001308A01BF207F3044
:100BF0008A01BF201D308A01BF2003308A01BF2037
:100C00000830A900BE30B000B101A5015E308A01F4
:100C1000142120308A01BF2020308A01BF20FD30FE
:100C20008A01BF200A308A017C210730B6002030BB
:100C3000B4005430AA00AB01AE01AF01FE308A010E
:100C4000BF20FE308A01BF2001308A01BF207F30E3
:100C50008A01BF201D308A01BF20DC308A01BF20FD
:100C60000430A900BE30B000B101A501E9308A010D
:100C70001421FD308A01BF200A308A017C2107300F
:100C8000B6002030B4005430AA00AB01AE01AF0171
:100C9000FE308A01BF20FE308A01BF2001308A0168
:100CA000BF207F308A01BF201D308A01BF20053060
:100CB0008A01BF200830A900BE30B000B101A501F3
:100CC0006E308A0114210830A900BE30B000B10195
:100CD000A50166308A0114210830A900BE30B00099
:100CE000B101A501D8308A011421FD308A01BF204D
:100CF0000A308A017C2103174908BE0064004608B7
:100D0000003C8A110A120313031D8C2E0030861931
:100D100001300317BE000313640003173E08003CB4
:100D20008A110A1203130319BC2E0730B6002030B3
:100D3000B4005430AA00AB01AE01AF01FE308A010D
:100D4000BF20FE308A01BF2001308A01BF207F30E2
:100D50008A01BF201D308A01BF20CF308A01BF2009
:100D600000308A01BF20FD308A01BF208A110A129B
:100D7000BC278A110A12302F0A308A017C210730E1
:100D8000B6002030B4005430AA00AB01AE01AF0170
:100D9000FE308A01BF20FE308A01BF2001308A0167
:100DA000BF207F308A01BF201D308A01BF20CF3095
:100DB0008A01BF2001308A01BF20FD308A01BF2097
:100DC0008A110A12BC27FE308A01032001308A01F1
:100DD00003200A308A017C2152308A0103207030BE
:100DE0008A01032074308A01032031308A010320F4
:100DF00020308A0103200830A9000230B000B10180
:100E0000A50166308A011421FE308A010320C0301A
:100E10008A01032052308A01032070308A010320A6
:100E200074308A01032032308A01032020308A0185
:100E300003200830A9000230B000B101A5016E30D6
:100E40008A01142120308A01032054308A010320B2
:100E500072308A0103200730A300D0308A017D213F
:100E6000FE308A01032001308A0103200A308A0102
:100E70007C214D308A01032063308A0103202D300C
:100E80008A0103200830A9000230B000B101A50199
:100E90005E308A0114212F308A0103200430A9001A
:100EA0000230B000B101A501E9308A011421FE3001
:100EB0008A010320C0308A01032059308A010320AF
:100EC00063308A0103202D308A0103200830A900F5
:100ED0000230B000B101A501D8308A0114212030C0
:100EE0008A01032054308A01032073308A010320D1
:100EF0000317A001A10103138A110A12EE27031799
:100F0000A00A0319A10AA20A0319A30A20080313BD
:100F1000A000031721080313A1001C30A300FC301C
:100F20008A019E218A110A12031DC82F0317220865
:100F30000313A000031723080313A1000B30A30021
:100F4000B8308A019E218A110A12031DEE2F143037
:100F50008A017C2164008A110A12871D7F2F871461
:100F600083168710963083128A017C21071183161D
:100F7000071183128A01162B071583160711963065
:100F800083128A017C218710831687108312080040
:100F90000512831605124B3083128A017C2105301D
:100FA000B6002030B4006630A20006308A0122214B
:100FB00032308A017C210530B6002030B400663022
:100FC000A20006308A01222105168316051283121B
:100FD0000317A001A10103138A017F2F64000317E7
:100FE0004108303C8A150A12031303198928071493
:100FF00083160710FA3083128A017C210530B6006F
:101000000430B4005430AA004030AB00AE01AF0150
:1010100024308A01BF2024308A01BF2043308A0156
:10102000BF2052308A01BF2043308A01BF200430E4
:10103000A900BE30B000B101A501E5308A0114213C
:101040002C308A01BF200630A900BE30B000B101AB
:10105000A5015E308A0114213E308A01BF20413053
:101060008A01BF2050308A01BF2044308A01BF204E
:1010700050308A01BF2052308A01BF2053308A018C
:10108000BF202C308A01BF2044308A01BF2053305A
:101090008A01BF2054308A01BF2041308A01BF201D
:1010A00052308A01BF202A308A01BF203A308A019B
:1010B000BF2021308A01BF200830A900BE30B00017
:1010C000B101A50156308A0114212F308A01BF20B9
:1010D0000930A900BE30B000B101A5014D308A0130
:1010E000142179308A01BF202F308A01BF20BE3001
:1010F000B000B101A50138308A0108210D308A0104
:10110000BF2007108316071083120317A201A30143
:1011100003138A017F2F8A110A16B32144308A01F2
:10112000032061308A01032074308A01032061307A
:101130008A01032020308A01032055308A010320D0
:1011400070308A01032064308A01032061308A01F3
:10115000032074308A01032065308A010320203087
:101160008A01032050308A01032043308A01032082
:101170000730B6008030B4005430AA00AB01AE0195
:10118000AF017B308A01BF2061308A01BF202C3043
:101190008A01BF200830A900BE30B000B101A5010E
:1011A0005E308A0114212C308A01BF200430A9004E
:1011B000BE30B000B101A501E9308A0114212C3004
:1011C0008A01BF200830A900BE30B000B101A501DE
:1011D000D8308A0114212C308A01BF200830A900A0
:1011E000BE30B000B101A50166308A0114212C3057
:1011F0008A01BF200830A900BE30B000B101A501AE
:101200006E308A0114212C308A01BF200430A900DD
:10121000BE30B000B101A501E5308A0114212C30A7
:101220008A01BF200830A900BE30B000B101A5017D
:1012300056308A0114212C308A01BF200930A900C0
:10124000BE30B000B101A5014D308A0114212C300F
:101250008A01BF2003173F0803138A01BF202C30E7
:101260008A01BF2083166F0883128A01BF202C30A9
:101270008A01BF200317410803138A01BF202C30C5
:101280008A01BF201430A900BE30B000B101A50111
:1012900038308A0114217D308A01BF2020308A0134
:1012A000BF200D308A01BF200A308A01BF2008000C
:1012B0000730B6004030B4005430AA00AB0108300B
:1012C000A9006D30B000B101A5015E308A018F2008
:1012D0008A110A16B3214D308A01032079308A0120
:1012E000032043308A01032061308A0103206C30DF
:1012F0008A0103206C308A0103202D308A010320EB
:101300000830A9000230B000B101A5015E308A01A9
:10131000142108000730B6004030B4005430AA0051
:10132000AB010430A9006D30B000B101A501E93076
:101330008A018F208A110A16B3214D308A010320B9
:1013400079308A01032043308A01032061308A0109
:1013500003206C308A0103206C308A0103202F3077
:101360008A01032032308A0103202D308A010320B4
:101370000430A9000230B000B101A501E9308A01B2
:10138000142108000730B6004030B4005430AA00E1
:10139000AB010830A9006D30B000B101A501D83013
:1013A0008A018F208A110A16B32155308A01032041
:1013B00072308A01032043308A01032061308A01A0
:1013C00003206C308A0103206C308A0103202D3009
:1013D0008A0103200830A9000230B000B101A50144
:1013E000D8308A01142108000730B6004030B4001C
:1013F0005430AA00AB010830A9006D30B000B10133
:10140000A50166308A018F208A110A16B321523055
:101410008A01032050308A01032054308A010320BE
:1014200031308A0103202D308A0103200830A900C1
:101430000230B000B101A50166308A011421080014
:101440000730B6004030B4005430AA00AB01083079
:10145000A9006D30B000B101A5016E308A018F2066
:101460008A110A16B32152308A01032050308A01B2
:10147000032054308A01032032308A0103202D30AA
:101480008A0103200830A9000230B000B101A50193
:101490006E308A01142108000730B6004030B400D5
:1014A0005430AA00AB010430A9006D30B000B10186
:1014B000A501E5308A018F208A110A16B321433035
:1014C0008A01032072308A01032063308A010320DD
:1014D0002D308A0103200430A9000230B000B10190
:1014E000A501E5308A01142108000730B60040301C
:1014F000B4005430AA00AB010830A9006D30B00030
:10150000B101A50156308A018F208A110A16B32134
:101510004C308A01032061308A01032074308A0133
:1015200003202D308A0103200830A9000230B000CA
:10153000B101A50156308A01142108000730B60018
:101540004030B4005430AA00AB010930A9006D301E
:10155000B000B101A5014D308A018F208A110A1611
:10156000B3214C308A0103206F308A0103206E3092
:101570008A01032067308A0103202D308A0103206D
:101580000930A9000230B000B101A5014D308A0137
:10159000142108000730B6004030B4005430AA00CF
:1015A000AB011530A9002A30AE006D30B000B1019A
:1015B000A50138308A01A220FE308A0103200130C3
:1015C0008A0103200A308A017C214E308A010320DF
:1015D00065308A01032077308A01032020308A0198
:1015E000032054308A01032065308A0103207830BB
:1015F0008A01032074308A0103203A308A010320D3
:101600000317C201031364000730031742028A154F
:101610000A1203130318262B0130A90003174208EE
:10162000383E8400031300080317980003130230A8
:10163000B000B1010130A50018308A011421031750
:10164000C20A8A150A120313031D032BFE308A01F6
:101650000320C0308A01032003170730C2000313A0
:1016600064001430031742028A150A120313031888
:10167000532B0130A90003174208383E840003139E
:1016800000080317980003130230B000B1010130C5
:10169000A50018308A0114210317C20A8A150A12FC
:1016A0000313031D302B03170130C400031308007C
:1016B0000730B6004030B4005430AA00AB018A01B4
:1016C0006D200317BF0003138A110A16B3214E3091
:1016D0008A01032065308A01032077308A010320C4
:1016E00020308A01032055308A01032072308A019C
:1016F000032043308A01032061308A0103206C30CB
:101700008A0103206C308A0103202D308A010320D6
:1017100003173F0803138A01032008000730B600AF
:101720004030B4005430AA00AB018A016D2083160A
:10173000EF0083128A110A16B32142308A01032076
:1017400065308A01032065308A01032070308A01E8
:10175000032020308A01032061308A010320633096
:101760008A01032074308A01032069308A01032032
:1017700076308A01032065308A0103202D308A01EA
:10178000032083166F0883128A01032008000730A4
:10179000B6004030B4005430AA00AB018A016D207D
:1017A0000317C10003138A110A16B32147308A01B7
:1017B000032050308A01032053308A010320413036
:1017C0008A01032020308A0103206F308A01032020
:1017D0006E308A0103202D308A010320031741084F
:1017E00003138A01032008008A110A16B321573017
:1017F0008A01032072308A01032069308A010320A4
:1018000074308A01032069308A0103206E308A0116
:10181000032067308A01032020308A0103204530ED
:101820008A01032045308A01032050308A010320B9
:1018300052308A0103204F308A0103204D308A0143
:1018400003200317C2010313640008300317420288
:101850008A150A1203130318A12C031742088D00DE
:1018600042085E3E8400031300080317980018081E
:1018700003138A016C21093003174207980099016C
:10188000990D18088D004208D83E84000313000803
:1018900003179800180803138A016C2112300317EC
:1018A000420798009901990D18088D004208663E7C
:1018B00084000313000803179800180803138A0113
:1018C0006C211B300317420798009901990D1808E5
:1018D0008D0042086E3E8400031300080317980031
:1018E000180803138A016C2130300317420798004F
:1018F0009901990D18088D004208563E8400031383
:10190000000803179800180803138A016C21393066
:101910000317420798009901990D18088D00420895
:101920004D3E8400031300080317980018080313A2
:101930008A016C210317C20A8A150A120313031DB8
:10194000242C031741308D00031355088A016C21A4
:101950000317C201031364000430031742028A15FF
:101960000A1203130318E12C2430031742079800CE
:101970009901990D18088D004208E93E840003136F
:10198000000803179800180803138A016C212B30F4
:101990000317420798009901990D18088D00420815
:1019A000E53E84000313000803179800180803138A
:1019B0008A016C210317C20A8A150A120313031D38
:1019C000AB2C0317C2010313640014300317420247
:1019D0008A150A1203130318072D43300317420711
:1019E00098009901990D18088D004208383E84002E
:1019F0000313000803179800180803138A016C21C9
:101A00000317C20A8A150A120313031DE42C0317D5
:101A100029308D003F0803138A016C2103175930C8
:101A20008D00831603136F0883128A016C2103173C
:101A30005B308D00410803138A016C210130A30043
:101A4000F4308A017D210800FE308A010320013034
:101A50008A0103200A308A017C2152308A01032046
:101A600065308A01032061308A01032064308A01D5
:101A7000032069308A0103206E308A010320673019
:101A80008A01032020308A01032045308A01032087
:101A900045308A01032050308A01032052308A01E8
:101AA00003204F308A0103204D308A0103200317A1
:101AB000C201031364000830031742028A150A1298
:101AC00003130318DD2D031742088D0003138A0149
:101AD000622103179800990142085E3E84001808AD
:101AE0000313800009300317420798009901990DEC
:101AF00018088D0003138A016221031798009901C9
:101B00004208D83E840018080313800012300317DF
:101B1000420798009901990D18088D0003138A0156
:101B200062210317980099014208663E8400180854
:101B3000031380001B300317420798009901990D89
:101B400018088D0003138A01622103179800990178
:101B500042086E3E840018080313800030300317DB
:101B6000420798009901990D18088D0003138A0106
:101B700062210317980099014208563E8400180814
:101B80000313800039300317420798009901990D1B
:101B900018088D0003138A01622103179800990128
:101BA00042084D3E84001808031380000317C20A40
:101BB0008A150A120313031D5A2D031741308D0095
:101BC00003138A016221D5000317C20103136400C5
:101BD0000430031742028A150A12031303181F2E3A
:101BE00024300317420798009901990D18088D00B9
:101BF00003138A0162210317980099014208E93E04
:101C000084001808031380002B3003174207980044
:101C10009901990D18088D0003138A016221031799
:101C2000980099014208E53E8400180803138000DB
:101C30000317C20A8A150A120313031DE72D03179F
:101C4000C201031364001430031742028A150A12FA
:101C500003130318462E43300317420798009901D7
:101C6000990D18088D0003138A016221031798004B
:101C700099014208383E84001808031380000317B6
:101C8000C20A8A150A120313031D222E03172930D4
:101C90008D0003138A0162210317BF0059308D00A4
:101CA00003138A0162218316EF00831203175B304E
:101CB0008D0003138A0162210317C100031308007A
:101CC0000317C201031364000430031742028A158C
:101CD0000A1203130318852E03174208143E8400CA
:101CE0008317031300080317980083134208103E5C
:101CF0008400831718080313800083130317C20A94
:101D00008A150A120313031D632E0317C20103135E
:101D100064000830031742028A150A1203130318DD
:101D2000D02E03174208B83E84000313000803179F
:101D300098004208763E84001808031380000317B9
:101D40004208D03E8400031300080317980042089D
:101D5000B03E840018080313800003174208C03EF9
:101D6000840003130008031798004208A03E840073
:101D700018080313800003174208C83E84000313A9
:101D80000008031798004208A83E840018080313AF
:101D900080000317C20A8A150A120313031D882E36
:101DA000080003170130C8000130C90003138A116D
:101DB0000A167A20080003170130C800C90103136E
:101DC0008A110A167A2008000317C8010130C900D9
:101DD00003138A110A167A2003170130C600031371
:101DE0008A110A167A2008000317C60103138A1104
:101DF0000A167A200800640003174708003C8A1579
:101E00000A120313031D0B2F03170130C70003131E
:101E10008A150A120E2F0317C70103130317013087
:101E2000C40003138A110A167A2008000730B6008E
:101E30004030B4005430AA00AB010A30AC00AD0110
:101E40008A0152208A110A16031C6C280317C0004D
:101E500064004608013C8A150A120313031D632F10
:101E6000640003174008533C8A150A120313031D2C
:101E70003C2F8A150A12D126640003174008523CF1
:101E80008A150A120313031D482F8A150A12DB262E
:101E9000640003174008433C8A150A120313031D0C
:101EA000542F8A150A12E426640003174008513C97
:101EB0008A150A120313031D602F8A150A12F426CD
:101EC0008A150A126F2F640003174008563C8A15C2
:101ED0000A120313031D6F2F8A150A12EC266400E1
:101EE00003174008493C8A150A120313031D7B2F70
:101EF0008A110A167A20640003174008443C8A15A8
:101F00000A120313031D872F8A150A12FB26640089
:101F100003174008473C8A150A120313031D942F28
:101F200003170130C5000313640003174008553C34
:101F30008A150A120313031DA02F0317C5010313EB
:101F4000640003174008613C8A150A120313031D3D
:101F5000AC2F8A150A128B20640003174008623CDC
:101F60008A150A120313031DB82F8A150A128E232D
:101F7000640003174008643C8A150A120313031D0A
:101F8000C42F8A150A125823640003174008653CC1
:101F90008A150A120313031DD02F8A150A12C723AC
:101FA0006400031740086D3C8A150A120313031DD1
:101FB000DC2F8A150A1258216400031740086E3C72
:101FC0008A150A120313031DE82F8A150A128A21A3
:101FD000640003174008723C8A150A120313031D9C
:101FE000F42F8A150A12F421640003174008733C89
:101FF0008A110A160313031D00288A150A122022CB
:10200000640003174008763C8A110A160313031D67
:102010000C288A150A124C22640003174008793CE8
:102020008A110A160313031D18288A150A12C221E1
:10203000640003174008783C8A110A160313031D35
:1020400024288A150A1275226400031740087A3C76
:102050008A110A160313031D30288A150A129E22BC
:10206000640003174008773C8A110A160313031D06
:102070003C288A150A12F423640003174008743CB4
:102080008A110A160313031D48288A150A12CA2248
:102090006400031747088A110A16031303196C28F2
:1020A0000730B6008030B4005430AA00AB01AE0156
:1020B000AF017B308A01BF200130A900BE30B000E3
:1020C000B1010130A50040308A0114217D308A0120
:1020D000BF2020308A01BF2003172030C0006400D9
:1020E0004508003C8A110A1203130319122B8A15A2
:1020F0000A12162F8A110A16AA215330FE00640014
:1021000003174608013C8A110A160313031D8A2887
:102110005630FE0003174908BE0064004608003C24
:102120008A110A160313031D9B28003086190130FB
:102130000317BE000313640003173E08003C8A1116
:102140000A160313031DBE280730B6008030B40002
:102150005430AA00AB01AE01AF017B308A01BF2031
:1021600052308A01BF207D308A01BF2020308A0191
:10217000BF205230FF008A110A16D5280730B6005A
:102180008030B4005430AA00AB01AE01AF017B3007
:102190008A01BF2053308A01BF207D308A01BF20D1
:1021A00020308A01BF205330FF0064000317470826
:1021B000013C8A110A160313031D02290730B600D9
:1021C0008030B4005430AA00AB01AE01AF017B30C7
:1021D0008A01BF200230A900BE30B000B101A501C4
:1021E0007E308A0114210230A900BE30B000B10156
:1021F000A501ED308A0114217D308A01BF202030F5
:102200008A01BF2008000330A300E8308A017D2145
:10221000FE308A01032001308A0103200A308A013E
:102220007C21640003174708013C8A110A16031336
:10223000031D50290230A9000230B000B101A501F0
:102240007E308A0114210230A9000230B000B101B1
:10225000A501ED308A01142120308A0103202A30A3
:102260008A0103202A308A01032020308A010320BA
:1022700053308A01032054308A01032042308A01FE
:10228000032059308A01032020308A0103202A309C
:102290008A0103202A308A0103208A110A167A292A
:1022A0000230A9000230B000B101A5017E308A01E0
:1022B000142120308A0103202A308A0103202A3089
:1022C0008A01032020308A01032053308A01032031
:1022D00054308A01032042308A01032059308A0198
:1022E000032020308A0103202A308A0103202A306B
:1022F0008A010320FE308A010320C0308A010320B6
:102300004C308A01032061308A01032073308A0136
:10231000032074308A01032020308A0103204330D7
:102320008A01032061308A0103206C308A01032076
:102330006C308A0103202D308A0103200630A90069
:102340000230B000B101A50176308A0114210317D3
:10235000C40103137E088316ED0083127F088316E1
:10236000EE0083120800FE308A01032001308A014A
:1023700003200A308A017C210230A9000230B0001B
:10238000B101A5017E308A011421640003174708BA
:10239000013C8A110A160313031DD7290230A90034
:1023A0000230B000B101A501ED308A0114216400B2
:1023B00003174508013C8A110A160313031D042A5A
:1023C00020308A01032047308A01032072308A01BD
:1023D00003206F308A01032075308A01032070309A
:1023E0008A01032020308A01032064308A010320FF
:1023F00061308A01032074308A01032061308A0130
:1024000003208A110A161C2A20308A010320553025
:102410008A01032070308A01032064308A0103207E
:1024200061308A01032074308A01032065308A01FB
:10243000032064308A010320FE308A010320C0306B
:0E2440008A01032003170130C40003130800B3
:02400E00753FFC
:00000001FF
